:100000001200AB75A0BF20A00A74011200C07431A9
:100010001200CE20A10A74011200C074341200CE66
:1000200020A20A74011200C074371200CE20A30A65
:1000300074011200C0742A1200CE75A0DF20A00A3D
:1000400074011200C074321200CE20A10A74011291
:1000500000C074351200CE20A20A74011200C074D0
:10006000381200CE20A30A74011200C074301200AE
:10007000CE75A0EF20A00A74011200C074331200E4
:10008000CE20A10A74011200C074361200CE20A244
:100090000A74011200C074391200CE20A30A740140
:1000A0001200C074231200CE01032274381200C063
:1000B00074801200C0740E1200C074141200C022AA
:1000C000F590C2B0C2B1D2B21200DCC2B222F59039
:1000D000D2B0C2B1D2B21200DCC2B22279E27A044A
:0500E000D9FEDAFC224C
:00000001FF
