:10000000743812050E748012050E740E12050E74EB
:100010001412050E1203981204F71203E91204F7E2
:1000200012004C1204F71200F51204F712017812B4
:1000300004F71202051204F71202831204F71203E6
:100040000B1204F71204B51204F780C87454120599
:10005000007448120500744912050074531205001B
:1000600074201205007449120500745312050074BF
:100070002012050074471205007452120500744FD7
:1000800012050074551205007450120500742012F8
:1000900005007431120500743312050012053C741A
:1000A000C012050E744D1205007465120500746DC2
:1000B0001205007462120500746512050074721254
:1000C00005007473120500742012050074491205AE
:1000D00000746E1205007463120500746C12050042
:1000E00074751205007464120500746512050074BD
:1000F0003A12050022748012050E74411205007434
:100100006B12050074751205007462120500747597
:100110001205007465120500747A120500746512E8
:1001200005007420120500744B120500742E120590
:100130000074201205007443120500742E1205008D
:1001400074C012050E74321205007430120500746A
:100150003112050074311205007433120500743633
:100160001205007434120500743012050074361242
:100170000500743212050022748012050E744F12AD
:100180000500746B120500746F1205007479120576
:1001900000746512050074201205007443120500F6
:1001A0007468120500746912050074641205007405
:1001B0006512050074721205007461120500742046
:1001C0001205007444120500742E12050074C0124A
:1001D000050E7432120500743012050074311205D8
:1001E00000743112050074331205007436120500D4
:1001F0007434120500743012050074361205007450
:100200003312050022748012050E744E120500741C
:100210006E1205007461120500746D1205007461A0
:10022000120500746E120500746912050074201224
:1002300005007455120500742E1205007420120575
:10024000007450120500742E12050074C012050EC1
:1002500074321205007430120500743112050074F6
:10026000311205007433120500743612050074341F
:100270001205007430120500743612050074341231
:10028000050022748012050E7445120500747A125E
:1002900005007465120500746E120500747712056E
:1002A000007461120500746E120500746E12050070
:1002B000746512050074201205007449120500745B
:1002C0002E12050074201205007443120500742ECE
:1002D00012050074C012050E74321205007430123B
:1002E00005007431120500743112050074331205D3
:1002F00000743612050074341205007430120500C3
:100300007436120500743512050022748012050E31
:10031000744E1205007477120500746F1205007494
:10032000671205007462120500746F1205007420D4
:100330001205007443120500746F120500746C12EC
:100340000500746C1205007469120500746E1205C4
:100350000074731205007420120500744B1205001E
:1003600074C012050E743212050074301205007448
:100370003112050074311205007433120500743611
:100380001205007434120500743012050074361220
:100390000500743612050022748012050E74451291
:1003A00005007443120500744512050074201205FF
:1003B0000074341205007432120500743112050005
:1003C0007420120500745012050074521205007456
:1003D0004F120500744A120500744512050074435B
:1003E000120500745412050022748012050E744C1C
:1003F000120500746512050074631205007474120E
:1004000005007475120500747212050074651205FA
:1004100000747212050074C012050E7449120500B2
:10042000746E12050074631205007468120500747E
:10043000611205007472120500746712050074657C
:10044000120500743A1205001204F7748012050EAA
:100450007445120500746E1205007467120500746D
:1004600072120500742E12050074C012050E74413C
:10047000120500747A120500747512050074621278
:1004800005007469120500746B120500746512058D
:100490000074201205007441120500746E120500EC
:1004A0007469120500746512050074641205007405
:1004B0007512050022748012050E74541205007422
:1004C000481205007441120500744E120500744B69
:1004D00012050074201205007459120500744F12A1
:1004E00005007455120500742112050074211205CF
:1004F0000074211205002212053C740112051C2211
:10050000F590D2B0C2B1D2B212052AC2B222F59091
:10051000C2B0C2B1D2B212052AC2B222F590C2B0A4
:10052000C2B1D2B2120533C2B222798B7AC3D9FEDC
:10053000DAFC2279727A14D9FEDAFC22797C7A9A72
:090540007B08D9FEDAFCDBFA228B
:00000001FF
