:1000000074381205187480120518740E12051874CD
:100010001412051812031A12050112036B120501BE
:1000200012004C1205011204791205011200F5129A
:1000300005011201781205011202051205011202D2
:100040008D12050112043712050180C8745412057F
:100050000A744812050A744912050A745312050AF3
:10006000742012050A744912050A745312050A74A1
:100070002012050A744712050A745212050A744FB9
:1000800012050A745512050A745012050A742012DA
:10009000050A743112050A743312050A12054674F2
:1000A000C0120518744D12050A746512050A746DA4
:1000B00012050A746212050A746512050A74721236
:1000C000050A747312050A742012050A7449120590
:1000D0000A746E12050A746312050A746C12050A1A
:1000E000747512050A746412050A746512050A749F
:1000F0003A12050A227480120518744112050A7416
:100100006B12050A747512050A746212050A747579
:1001100012050A746512050A747A12050A746512CA
:10012000050A742012050A744B12050A742E120572
:100130000A742012050A744312050A742E12050A65
:1001400074C0120518743212050A743012050A744C
:100150003112050A743112050A743312050A743615
:1001600012050A743412050A743012050A74361224
:10017000050A743212050A227480120518744F128F
:10018000050A746B12050A746F12050A7479120558
:100190000A746512050A742012050A744312050ACE
:1001A000746812050A746912050A746412050A74E7
:1001B0006512050A747212050A746112050A742028
:1001C00012050A744412050A742E12050A74C0122C
:1001D0000518743212050A743012050A74311205BA
:1001E0000A743112050A743312050A743612050AAC
:1001F000743412050A743012050A743612050A7432
:100200003312050A227480120518744512050A7407
:100210007A12050A746512050A746E12050A74775B
:1002200012050A746112050A746E12050A746E12C0
:10023000050A746512050A742012050A744912052C
:100240000A742E12050A742012050A744312050A54
:10025000742E12050A74C0120518743212050A743D
:100260003012050A743112050A743112050A74330A
:1002700012050A743612050A743412050A74301213
:10028000050A743612050A743512050A22748012A2
:100290000518744E12050A747712050A746F120558
:1002A0000A746712050A746212050A746F12050A4D
:1002B000742012050A744312050A746F12050A7439
:1002C0006C12050A746C12050A746912050A746EC0
:1002D00012050A747312050A742012050A744B126F
:1002E000050A74C0120518743212050A743012051A
:1002F0000A743112050A743112050A743312050AA0
:10030000743612050A743412050A743012050A7420
:100310003612050A743612050A2274801205187402
:100320004512050A744312050A744512050A742021
:1003300012050A743412050A743212050A74311255
:10034000050A742012050A745012050A7452120527
:100350000A744F12050A744A12050A744512050AF6
:10036000744312050A745412050A22748012051887
:10037000744C12050A746512050A746312050A7436
:100380007412050A747512050A747212050A7465EE
:1003900012050A747212050A74C012051874491203
:1003A000050A746E12050A746312050A7468120550
:1003B0000A746112050A747212050A746712050A3A
:1003C000746512050A743A12050A12050174801246
:1003D0000518744512050A746E12050A7467120531
:1003E0000A747212050A742E12050A74C0120518D6
:1003F000744112050A747A12050A747512050A749A
:100400006212050A746912050A746B12050A746592
:1004100012050A742012050A744112050A746E123C
:10042000050A746912050A746512050A74641205D6
:100430000A747512050A2274801205187454120584
:100440000A744812050A744112050A744E12050A0C
:10045000744B12050A742012050A745912050A74A5
:100460004F12050A745512050A742112050A7421E7
:1004700012050A742112050A227480120518744D9F
:1004800012050A746F12050A746D12050A7461125E
:10049000050A746812050A742012050A744F1205C1
:1004A0000A746212050A746912050A746E12050A4A
:1004B000746E12050A746112050A742012050A741A
:1004C0004712050A742E12050A74C01205187432F8
:1004D00012050A743012050A743112050A743112B9
:1004E000050A743312050A743612050A74341205AB
:1004F0000A743012050A743012050A743912050A9A
:1005000022120546740112052622F590D2B0C2B11E
:10051000D2B2120534C2B222F590C2B0C2B1D2B288
:10052000120534C2B222F590C2B0C2B1D2B21205E5
:100530003DC2B222798B7AC3D9FEDAFC2279727A73
:1005400014D9FEDAFC22797C7A9A7B08D9FEDAFC8F
:03055000DBFA22B1
:00000001FF
