:1000000075900075A00075900C75A00112011D750A
:10001000900075A00075901275A0011201107590E6
:100020000075A00075900075A00112011075900078
:1000300075A00075901275A00112011075900075E1
:10004000A00075900075A00112011075900075A0B8
:100050000075901275A00112011075900075A00036
:1000600075902175A00112011D75900075A0007595
:10007000901175A00212011075900075A000759086
:100080000175A00012011075900075A00075901107
:1000900075A00212011075900075A0007590017591
:1000A000A00012011075900075A00075901175A048
:1000B0000212011075900075A00075900975A004DA
:1000C00012011D75900075A00075900A75A00212AE
:1000D000011075900075A00075900875A0001201C0
:1000E0001075900075A00075900A75A0021201109D
:1000F00075900075A00075900875A000120110752C
:10010000900075A00075900A75A002120110010000
:10011000797C7A9A7B08D9FEDAFCDBFA2279F77AC5
:0A012000997B2ED9FEDAFCDBFA22EF
:00000001FF
